:020000040000FA
:10000000E04F0020B9010000E9010000EB01000011
:1000100000000000000000000000000000000000E0
:10002000000000000000000000000000ED010000E2
:100030000000000000000000EF010000F1010000DE
:10004000A90F0000F9E70000C14E0000DD4E0000DE
:10005000615C0000855C0000F3010000F30100001A
:10006000E5C3000035C4000039C4000055C40000D9
:1000700099E70000C5E7000099B80000BDB800008E
:10008000E1B8000005B90000996F0000E96F0000B9
:10009000F3010000F3010000F3010000DDE70000C0
:1000A000F3010000F301000079B70000F301000044
:1000B00009B80000F3010000F3010000F3010000A3
:1000C00000F002F800F04DF80CA030C808382418F1
:1000D0002D18A246671EAB4654465D46AC4201D180
:1000E00000F03FF87E460F3E0FCCB6460126334265
:1000F00000D0FB1AA246AB4633431847B0EB0000D2
:10010000D0EB0000103A02D378C878C1FAD8520771
:1001100001D330C830C101D504680C6070470000BD
:100120000023002400250026103A01D378C1FBD813
:10013000520700D330C100D50B60704710B5642959
:1001400002D100F0ADF810BD782902D100F0DEF840
:1001500010BD002010BD1FB5C046C0461FBD10B564
:1001600010BD00F097FD1146FFF7F5FF0EF0A4FB60
:1001700000F0AFFD03B4FFF7F2FF03BC00F0E2FDB7
:1001800070B505460C46164602E00FCC0FC5103E72
:10019000102EFAD2082E02D303CC03C5083E042E3B
:1001A00007D301CC01C5361F03E021782970641CF8
:1001B0006D1C761EF9D270BD1148124A016D1140B6
:1001C000FCD01148114901601149016011490160D9
:1001D00001693F2901D110490161104A104911609C
:1001E000002101600F480047FEE7FEE7FEE7FEE75B
:1001F000FEE7FEE70C480D490B4A0D4B7047000027
:100200000040005000800000000100505900000034
:1002100016000000880000002000000024000050AC
:10022000A55A0000C1000000E04B0020E04F002074
:10023000E04B00200FB4054910B503AA029800F066
:1002400007FC10BC08BC04B0184700006C0000207C
:1002500070B5044685690068C10601D5302600E006
:100260002026C00707D070BD62683046A16890475D
:10027000206A401C20626D1EF6D570BD70B5044624
:1002800085690068C00707D170BD6268A168202039
:100290009047206A401C20626D1EF6D570BD00009C
:1002A000F7B5002675291068009914A511D0C0462D
:1002B000C046002802DA404211A508E0009909680A
:1002C0008A0701D50FA502E0490704D50EA501262E
:1002D00001E0C046C046009F0024243704E000F03F
:1002E000CBFB30313955641C0028F8D133462A46FF
:1002F0002146009800F053FBFEBD00000000000006
:100300002D0000002B0000002000000070B5044606
:100310000D4621461068C046C0462168090502D531
:100320000F4A7A4402E00E4A7A440E3223460021F4
:10033000243305E00607360F965D5E54491C00091C
:100340000028F7D120680023000705D5702D03D0C1
:10035000002901D011320223204600F020FB70BD9D
:100360004BE90000F3B50446002081B090E0E1685D
:100370002046884700287DD0252802D06268A168E1
:1003800083E0454F00257F442046E16888472028C8
:10039000064608DB312E06D2B8192038007800282E
:1003A00001D00543F0E7A80701D5042085430020CC
:1003B000E0610746A0612A2E0AD030460EF062FAAC
:1003C000002827D0303EB80000190090866119E05F
:1003D0000298BA00121902C8916102902046E168A1
:1003E0008847012F064617D1E06900281FDA202030
:1003F00085431CE000980A218069484300998019D0
:10040000303888612046E168884706460EF03AFA9F
:100410000028EFD1012F0AD02E2E08D12046E16806
:1004200088470646202005437F1C022FC3DBA069B6
:10043000002803DA4042A06101200543E80701D00B
:1004400010208543002E25D030464138192803D886
:100450000120C00205432036204625603146029A1D
:100460001546FFF76BFE00280CD0012807D0ED1DC4
:10047000E80800E00EE0C0000830029077E72D1D8C
:10048000029574E762683046A1689047206A401C74
:1004900020626CE7206AFEBD0FE90000D2B210B501
:1004A00013029A1813049A1800F00EF810BD01E018
:1004B00004C0091F0429FBD28B0701D50280801CD0
:1004C000C90700D00270704700290BD0C30702D0C3
:1004D0000270401C491E022904D3830702D5028002
:1004E000801C891EE3E70022EEE70022DFE7704769
:1004F0007047704700487047804B00207047704736
:1005000000000001070212230B000101494C49328F
:1005100033313254756E696E673030000000000070
:10052000000000000000FFFFFFFF00000005FF17B4
:100530000616080009053031215041000000000076
:10054000000000000000000000000000FFFFFFFFAF
:100550000000000000408025FFFFFFFFFFFFFFFFBE
:10056000FFFFFFFFFF004080254E002C000A000027
:1005700000FFFFFFFFFFFFFFFFFFFFFFFFFFFFFF8A
:1005800000000000F8B5042A2CD3830712D00B78A2
:10059000491C0370401C521E83070BD00B78491C6A
:1005A0000370401C521E830704D00B78491C037053
:1005B000401C521E8B079B0F05D0C91ADF00202359
:1005C000DE1B08C90AE0FFF7DBFDF8BD1D4608C9C0
:1005D000FD401C46B4402C4310C0121F042AF5D223
:1005E000F308C91A521EF0D40B78491C0370401C42
:1005F000521EEAD40B78491C0370401C521EE4D4EE
:1006000009780170F8BD431A70B593421BD289185E
:10061000801804E0491E521E0B78401E0370930799
:10062000F8D106E010390B461038103A78CB78C074
:100630001038102AF6D203E0001F091F0B68036070
:10064000121FF9D570BDFFF79BFD70BDF8B50646CA
:1006500014460843800707D0751AA54219D2081915
:10066000102D13D2311907E03046FFF7CCFFF8BD4B
:10067000401E491E02780A70641EF9D2F8BD471B5D
:100680002A463946FFF77EFF641B3846A542F6D35B
:10069000011B22463046FFF775FFF8BD0022030913
:1006A0008B4273D3030A8B4258D3030B8B423CD348
:1006B000030C8B4221D312E003460B437FD400226C
:1006C00043088B4274D303098B425FD3030A8B42E6
:1006D00044D3030B8B4228D3030C8B420DD3FF2250
:1006E000090212BA030C8B4202D31212090265D01E
:1006F000030B8B4219D300E0090AC30B8B4201D3D1
:10070000CB03C01A5241830B8B4201D38B03C01A17
:100710005241430B8B4201D34B03C01A5241030B8E
:100720008B4201D30B03C01A5241C30A8B4201D33F
:10073000CB02C01A5241830A8B4201D38B02C01AEA
:100740005241430A8B4201D34B02C01A5241030A61
:100750008B4201D30B02C01A5241CDD2C3098B4246
:1007600001D3CB01C01A524183098B4201D38B01C3
:10077000C01A524143098B4201D34B01C01A524166
:1007800003098B4201D30B01C01A5241C3088B42AB
:1007900001D3CB00C01A524183088B4201D38B0096
:1007A000C01A524143088B4201D34B00C01A524138
:1007B000411A00D201465241104670475DE0CA0F0F
:1007C00000D04942031000D34042534000229C46CF
:1007D00003098B422DD3030A8B4212D3FC228901D9
:1007E00012BA030A8B420CD3890192118B4208D3AF
:1007F000890192118B4204D389013AD0921100E011
:100800008909C3098B4201D3CB01C01A5241830924
:100810008B4201D38B01C01A524143098B4201D351
:100820004B01C01A524103098B4201D30B01C01A7C
:100830005241C3088B4201D3CB00C01A52418308F6
:100840008B4201D38B00C01A5241D9D243088B424C
:1008500001D34B00C01A5241411A00D201466346EF
:1008600052415B10104601D34042002B00D5494253
:10087000704763465B1000D3404201B50020C0467C
:10088000C04602BDCB02420D10B51A430B1504D071
:100890000124E4072243002B06DB0A4CE31A05D4AB
:1008A0001046D840FF2B00DD002010BD4A00002874
:1008B00000D001201018044A9042F5D8C817C04350
:1008C00010BD00001E0400000000E0FF1F22030C0A
:1008D00002D10F22000402D0030E02D003E0002157
:1008E0007047083A0002030F01D1121F0001830F65
:1008F00001D1921E8000002801DB521E400012052B
:1009000051184205C012411810467047C10FC9075F
:1009100000D04042012292071143D7E70121890705
:10092000D4E7000070B505464800440D134B002085
:10093000002C0AD0634008D09A4206DA6642B242DE
:1009400003DD12054019514170BDCE0FF60700209E
:10095000002C07D0002B07D03146002AF4DB084AD0
:10096000114370BD314670BD28460A03104302D0C2
:100970000020044970BD284670BD0000FF0700003C
:100980000000F07F0000F87F10B5FFF7B3FD0068AE
:1009900010BD10B50446FFF7ADFD046010BDFFB5F6
:1009A00004460D4681B0243000902168880604D5A5
:1009B0001022E0699143216000E00120A84201DD9E
:1009C000471B00E000270498A1697A191018081A3B
:1009D000A0612068C00602D42046FFF739FC00263B
:1009E00008E003986268A168805D9047206A401C17
:1009F000761C206204988642F3DB2068C0060AD584
:100A00002046FFF725FC06E06268A1683020904789
:100A1000206A401C206238467F1E0028F4DC07E074
:100A200000986268A168405D9047206A401C20627F
:100A300028466D1E0028F3DC2046FFF71FFC2068C7
:100A4000000602D5022005B0F0BD0120FBE7000042
:100A5000084B70B50C467B4400F0E5F8054620468F
:100A60000DF017FF002802D00020C04370BD2846BB
:100A700070BD00003FDE000001468008081A020930
:100A80001018020A1018020C1018C0088200121860
:100A90005200891A01E00A39401C0A29FBD270472A
:100AA000F8B51E4C4E00069DA6420AD8A64201D1BA
:100AB000002806D15E00A64203D8A6420AD1002A29
:100AC00008D00D242404254223D02946002000F01C
:100AD000BDF8F8BD0C461C4305D4994200D19042A4
:100AE000EFF30080F8BD09242407E5008B4206D00F
:100AF000EFF30080A043591A06D2284304E0101AED
:100B0000EFF3008003D3A04380F30088F8BDA04337
:100B1000F3E7009500F0B0F8F8BD00000000E0FF3A
:100B2000F0B53C4B0D460C0302461D402243002D00
:100B300062D0394C8B4365D00127002966DB0A0D52
:100B4000130599433B051943FD32FA4001D30018C0
:100B50004941FF328B0281329446820D13430121B9
:100B6000890782024C4200201B198C105D1A04D4A4
:100B70002D1B02D42B466500491992185B4164086D
:100B8000F4D15C1A08D40125ED07EE17551974410C
:100B900002D423462A46491C94185B41012292073D
:100BA0001D46261A8D4107D40027B61ABD4103D42D
:100BB0002B4655003446401924195B415208802ABF
:100BC000EED1234300D002230A22D04001D30122D8
:100BD00013438A0510436246890A12058918002BBF
:100BE00009D00122D34002D30022401C5141002BE6
:100BF00001D140084000F0BD002AFCD0C90FC90750
:100C00000020F0BD002A01D10029FADA0020214697
:100C1000F0BD00000000F07F0000F87F01694A1C71
:100C200002610878704700B58FB0029100210591EC
:100C30000549019379440391114604906846FFF7F2
:100C400091FB0FB000BD0000E5FFFFFFCA0211D508
:100C50004A03520F04D0C803C043012188407047A3
:100C600003221207EFF3008108010009104380F30B
:100C7000008870470020704710B500200249029A92
:100C800000F02DF810BD00000000F87F004870470C
:100C9000804B00207546FFF7F9FFAE460500694618
:100CA0005346C008C000854618B020B5FFF7A2FA29
:100CB00060BC00274908B6460026C0C5C0C5C0C5EF
:100CC000C0C5C0C5C0C5C0C5C0C5403D49008D46F2
:100CD00070470446C046C0462046FFF74BFA10B5A1
:100CE0000C461107090F092904D00A290AD008293E
:100CF0000CD104E011460820FFF7A8FF06E05106DA
:100D000006D501E0510601D50120C007214610BDDE
:100D1000D1060AD5010109090022CB085407490769
:100D2000000E1C430006044309E0410F200249075E
:100D3000000A0143200E00061D22D141014308464E
:100D4000E4E7000001491820ABBEFEE726000200E0
:100D5000284B187E01284CD127480078002848D11C
:100D600026480078002844D125480078002840D142
:100D7000F0B5254A2349547A157A488A22022A4333
:100D8000824233D20020488284462048C17800291C
:100D900026D91F490C6881780022002919D9C9B2C7
:100DA000654669431B4D89182D6889B26E5CDF7EEC
:100DB000BE4202D9655C6D1E05E06D5C1E7FB542CA
:100DC00002D2655C6D1C6554521C8178D2B291428E
:100DD000E5D86146491CC9B2C2788C466245DAD86A
:100DE000587F012801D100F017F8F0BD401C48825F
:100DF000F0BD70477035002075000020A60000206F
:100E0000A9000020000600208135002024350020A4
:100E10008C0000207C000020F0B5384984B0002010
:100E2000C88237490090C878401E0190002860DDD4
:100E30003248344A0078029033481268807F8446F2
:100E40008878009904464C43135D491C05464D4380
:100E50000391515D591A0123012811D9D618A75DB4
:100E6000AE5DBE1B8F1B00D5771A674503DD234996
:100E7000CF8A7F1CCF825B1CDBB231469842EDD813
:100E8000029989070BD4009949098B001F49CB5857
:100E90000099CE06F60E0121B1400B4223D000216D
:100EA0008E46019B00998B4201DC002118E0115D08
:100EB000535DC91A0123012811D9D618A75DAE5D6B
:100EC000BE1B8F1B00D5771A674503DD7146491C91
:100ED000C9B28E465B1CDBB231469842EDD87146F2
:100EE0000B4B009C19550399019BC9B200918B4291
:100EF000A7DC0248C08A04B0F0BD00000006002054
:100F0000243500208C0000207035002018060020B9
:100F1000C4440020F8B50AF093FF00200BF030F82D
:100F20001B480022C178002917D91A4D1A4F83781F
:100F30000021002B0CD9DBB22C68534364181C5DD4
:100F40003E6876189C55491C8378C9B28B42F2D80A
:100F5000521CC178D2B29142E9D800200F49044610
:100F60008200401CC0B28C500228F9D30C4D0620E0
:100F7000AC82A870EC70022028700A48407F0128DB
:100F800001D1FFF749FF2C700AF05AFFF8BD0000AD
:100F900024350020880000208C0000201806002046
:100FA000000600207035002005200007816910220E
:100FB0001143816102484068002800D00047704713
:100FC00010000020022204490028086801D01043C4
:100FD00000E090430860704700C0005008220449B8
:100FE0000028086801D0104300E090430860704773
:100FF00000C00050014A516010607047000000209E
:10100000060A3E5092B2E99A2981D643D1735C27F1
:101010001DD929D168C2894EB8BD9C9EC66B55BBEF
:10102000E716D425A0FF50964ABB7D34BE9A328580
:10103000A2154656A4382B2AD870CC36F34B0003A1
:10104000FFAC12CB31715C0B1D8D921CA10361347E
:1010500094453E2F0909B394B6609B575DFF2B2D35
:101060000958538FCCB2A1CF3851725A67A8C072B9
:10107000754199ACF4A067F93364D8D4F3D3A9B619
:10108000FFBD735259FBA749504A22308E22A288D5
:101090005A1811A2D7FB422A60F1790CFD181519D4
:1010A0002360E244409F0FC680165AE996DDDB4A72
:1010B000FB26A555B49F419ABEFDCE0AB2BD1A9A31
:1010C000155E441DDE92BA2CD1CC0A5C362A0D90F6
:1010D0008123DE38437112CA4D7BAE812F09F1079F
:1010E000013DD70187426D4A1FDE74B31F9B41DD6E
:1010F000CC56F407A307031459475F89FAEFBCF7EE
:10110000AD3D0000F0B5594A85B0D2780021521E9D
:10111000049282427EDC564F787F01287AD155486E
:101120000622827054480278002A74D073D951483C
:10113000524B44780294641CA5006519029CA600D9
:10114000A41901948C00E4186478019EB4420BD376
:10115000AC4209D2002103910091B97F484A8E46E2
:1011600042491568887804E0491CC9B29142E9D324
:1011700061E0009A0199049B8918C9B200228B4250
:1011800000DC1CE003464B439C46EB5C491C0446D8
:101190004C43295D591A0123012810D96746EE18DE
:1011A000BF5DA65DBE1B8F1B00D5771A774501DD9D
:1011B000521CD2B25B1CDBB231469842EED8039986
:1011C000891889B203910099491CC9B20091052977
:1011D000CFD3284E0398F2892A490A32904227D960
:1011E0000298029A085C401CC0B28854032822D995
:1011F0000021062201984018C317DB0E1B185C1152
:10120000A500214C5B092F195B01C51A012003467B
:10121000AB4001E012E00EE03C68491C1C433C601E
:101220003378521E034312063370120EE2D102E0ED
:10123000029A002088540F480021C1810D4804996A
:10124000C27891420FDC0021C170C28A838A143AAD
:10125000934203DA027802231A43027002780423CD
:101260001A430270818205B0F0BD000024350020D1
:1012700070350020000600207500002092410020FB
:101280008C0000207C44002018060020F0B5604F40
:101290000546787F85B001287ED15E495D4AC978D0
:1012A000927802925C4A681E126804925B4A8842F5
:1012B000947872D1029A002A6ED0049A4B1C167848
:1012C0009446002022465A430393554B00921B68D4
:1012D00001939A5CB61A0122012C16D9BB7F9E4657
:1012E000019B009F9B18FF5C63469B5CDF1BF31B0D
:1012F00001D5BE1B00E01E46764501DD401CC0B294
:10130000521CD2B23E469442EAD8424A8446D3891D
:101310001818D081938A6046181890824148425C20
:101320006046C01C9646824247D93F480023027857
:10133000002A0CD03D4E3088C009471A00D50F1A3C
:10134000022F01DA5B1CDBB2B61C521EF3D15A002D
:1013500060461318734530D20127002910D04A1E69
:10136000D317DB0E9E1872119300314A76099A1832
:10137000481E7601861B38461368B040034313604D
:10138000480982002A48CE068358F60E3946B740EF
:101390003B438350039A01E038E011E05209039E79
:1013A0009200F6068358F60E0F46B7403B43835033
:1013B0001838007808431749087016480399C17017
:1013C0000298144E002821D0F07885421ED1029850
:1013D000062804D105212846FFF760F970700298AD
:1013E000401E0006000EB07010D000200B49002CEB
:1013F0000CD90B4B8A781C686A432418145D049A34
:101400001454401C8A78C0B28242F3D805B0F0BDB3
:1014100070350020000600209000002024350020B8
:1014200088000020C4440020A00000208A4700203B
:1014300018060020FFB58C4685B00021009101916F
:10144000CC49C978491E814253D1CB480078002845
:101450004FD1CA48C94A807A0290117802231943B1
:101460000391917904910A2857D20799C44A0988AF
:1014700011546146C34A0988115409283ED10023FA
:10148000C148BF4E1D46044617460A2132789A428B
:1014900000D91346824200D210463A78AA4200D9B7
:1014A0001546A24200D21446761C7F1C491EEDD17F
:1014B000834201D9181A00E0C01A0A281EDAA54290
:1014C00001D9281B00E0601B0A2817DA01200090D0
:1014D0000499AA48012903D0017901290BD00DE014
:1014E0000021817281710173C17203990422114339
:1014F000017009B0F0BDC17A491CC17202989F49C0
:10150000401C8872079804889C48002CC0790AD037
:1015100061460988002903D005E000209749F0E7DB
:10152000009901291AD09549002801D0401EC871A0
:101530000898964B01889148028A0120002961464B
:101540002DD00D88002D32D08C499A4202D84E7988
:10155000002E1AD0019E002E0FD023E087490528C7
:1015600004D2401CC0B2C871052803D301200190E9
:101570000020087200204872DAE7AC4202D34D7BAB
:10158000002D0FD1009D012D0CD1049D002D00D107
:101590008D7208714871887100254D7202E00988CA
:1015A000002904D0002C02D10099012908D07349E8
:1015B0004D7A002D01D06D1E4D72002C11D018E017
:1015C0006E494C7A0A2C08D98C79002C00D18C7287
:1015D00000244C72087148718871E4B2641C4C722A
:1015E00007E064462488002C03D1694C2478002C41
:1015F0001FD0624C217A002901D0491E21725F4C14
:101600009A4201D8521C2282079A00211180624618
:101610001180089A118059490979012900D068E799
:101620005C490C78002C7DD0544B0025D97A8C462F
:1016300073E00C7A641CE4B20C72642CDFD90025D0
:101640000D724D72039C042634430C700D718D7223
:101650000D734873CD72D2E74F490020AA0051188C
:10166000009154E04D4986004A5D4B498F5DBA4276
:1016700001D9D21B00E0BA1A97B2494A7118525DDB
:1016800049788A4201D9511A00E0891AC91989B2E8
:1016900003293AD2197B642902D2491C197334E018
:1016A000009949784A1ED717FF0EBF18BC467E1115
:1016B000B7003C4EBF19BE463E6867467F097F01B2
:1016C000D71B0122BA40164377464A093E60920072
:1016D000344E9446B658CF06FF0E0122BA40164348
:1016E000304F6246BE504F1C790989002D4AFF06D3
:1016F0005658FF0E0122BA4016432A4A565019780E
:1017000005221143197000218C46401CC0B2A04232
:1017100001D21428A6D36D1CEDB2A54201D2142D1E
:101720009AD300E01CE06046D872FF2214211B48C7
:10173000FEF7B4FEFF2214211948FEF7AFFE002089
:10174000164A1549164E07E08300CD5C15545B1808
:101750005B783354401CC0B2A04201D21428F3D3AA
:101760000648C17A022900D8C3E60021C17201717E
:1017700009B0F0BD24350020A5000020000600209F
:101780008844002092440020FFFF00001027000042
:101790005C06002075000020924100209C4400203F
:1017A000B044002018060020F8B525490878420703
:1017B00045D5800740D000200AF0E2FB21480021F7
:1017C000C278002A25D91E4A1F4E17781F4A15686D
:1017D000BA0709D44A0993001D4ACC06D358E40E2F
:1017E0000122A24013420FD083780022002B0BD994
:1017F000DBB24B439B1834689BB2E45CEC54521C44
:101800008378D2B29342F3D8491CC278C9B28A42D3
:10181000DED80B48002484820AF012FB0D48407F7A
:10182000012801D1FFF7F8FA094900208200401C85
:10183000C0B28C500228F9D3014900200870F8BDCD
:101840000006002024350020880000208C000020A5
:101850001806002070350020F0B53B4883B00088A2
:1018600000240103081A870B384800880103081A6E
:101870004B21C901FEF712FF80B2354EC2B2030AF6
:101880003448B4720078390AFDB2012850D084205F
:101890007072F07C002849D0C0B2401EF0742E480F
:1018A0005527077054274770BE46777A8770C570F2
:1018B000017142718371FF26C67101960472A446BC
:1018C0006E18D4193619F4185234E4B24472552003
:1018D000224E0090B0694002FCD500983060B0699B
:1018E0004002FCD570463060B0694002FCD53760DC
:1018F000B0694002FCD53560B0694002FCD531606A
:10190000B0694002FCD53260B0694002FCD533605A
:101910000198B1694902FCD530606146B069400266
:10192000FCD53160B0694002FCD5346003B0F0BD35
:10193000707A812806D0822804D08120707203201A
:10194000F074A9E78220F9E7E6450020FA45002077
:10195000D8000020303400203C4200200000154018
:10196000E548012102224156825691427ED0F0B5CF
:1019700093B00020029003900490DF4C05900690F5
:101980000990089007901421A068FEF7ACFD14217F
:10199000E068FEF7A8FD0022D24314212069FEF77B
:1019A0007DFD002002220190A256002A0ADD606916
:1019B00001994156491C7DD00199491CC9B2019138
:1019C0009142F5DBCC4902240C570020002C43DD6A
:1019D0000D46099950225143EA6AA86A89182A6A71
:1019E000EB69001F091F121F5B1EE4070ED0099C44
:1019F0006E6AA4003459001D0668091DA4190E68FA
:101A0000121DA41B14605B1C099C1C70BA4C02259F
:101A10006557EC05240E1DD0099DAD00B64E4768F4
:101A2000766A08307659F6194F680831F61B566009
:101A3000099E5E70B04E0768766A083276599B1C24
:101A4000F6190F68F61B1660641E099E24061E70A8
:101A5000240EE3D1A8488078089A079991427DD254
:101A6000079802A9085C0190079800E043E1401C38
:101A7000C0B2A14A07900223D3560020002B74DD88
:101A8000019A50235A439446019A92000C92019A6B
:101A900052B20D9298498200CB6A4D6A63449C58B9
:101AA0000C9B896AEB58895859188C4253D1924E35
:101AB000F26800E003E0115C002910D04BE06946B9
:101AC000019808720120089001980990012122696B
:101AD000C9431154A26801980121115472E7B169F8
:101AE0000956491C41D001211154B269089C155C6A
:101AF00002AB1D55089B5B1CDBB208931256B36802
:101B00009954B269336912560D9999540222B2560A
:101B1000002A20DDB16950240956F5696143F46A51
:101B2000B36A0C19316A744EB769766A3F56BF00C2
:101B3000F6591F68F6192768F61B0F68BE4204D9CC
:101B40006D4F0E60BE69365C2E701B1D241D091D75
:101B50006D1C521EE7D1401CC0B201E00FE004E052
:101B6000654902228A56904294DB634902228A56D2
:101B7000904204DB089A0799914200D270E75E4CCC
:101B8000022161568C4660457EDB5C4800290DDDF4
:101B9000226AE16863460D78491C002D03D115685F
:101BA000854200DD2846121D5B1EF4D161460029E6
:101BB0001FDD5149CE688D680C6A8B6A4A6A61469E
:101BC0002F786D1C002F02D017683F1A17603778E6
:101BD000761C002F03D01F683F181F6002E02768A3
:101BE0003F1A2760491E121D1B1D241D49B20029E2
:101BF000E6D10020614607900890002959DD3E4952
:101C0000CB68195C00294DD13B4984000A6A1259FE
:101C1000002A47D18A691256521C08D001221A5450
:101C20008D698C682B56E65C002E05D03AE032496F
:101C3000C969095C01913CE02F5C089E02ADAF557B
:101C4000089D6D1CEDB20895E2548B69CA691C565B
:101C50000B69125C1A5502228A56002A22DD8B6912
:101C600050251B56CE696B43CD6A8C6A5D190B6A91
:101C700021498F69496A3F56BF00C9592768C91968
:101C80002F68CF1B196800E019E08F4204D91A4968
:101C90001F608969095C3170241D2D1D1B1D761C78
:101CA000521EE5D114490222401C8A56C0B290420D
:101CB000A5DB114902228A56904200DBCCE60E4E8B
:101CC00040B27178491C7170019949B28A1C09D0DF
:101CD000B56934697269535629545054615618468F
:101CE0008B1CF8D10120022130567156884200D059
:101CF0003FE613B0F0BD70472C060020001F0AFA23
:101D0000F8B501F07FFD0128FBD03748592101606B
:101D10001621016088210160002001F073FF00207E
:101D200001F082FF31484168012319434160416855
:101D30000222114341602E4C206808210843206094
:101D40002068184320602B4D00212B4A0E46AF100F
:101D5000E068C0071DD013705180002001F052FFD1
:101D6000206A0121C90488432062E0684007FCD54D
:101D70002249284601F0D6FD20680421084320604E
:101D80000021042001F050FE0121032001F04CFE4F
:101D900019E016705180491C89B2B942D8D301208C
:101DA00001F042FF206840084000206014481549B7
:101DB000054601F0B7FD0121042001F035FE0221A6
:101DC000032001F031FE0121042001F02DFE02214B
:101DD000032001F029FE0B49284601F0A3FD02482B
:101DE000066002F0C3FAF8BD000100504000005048
:101DF00000020050E02E0000D40000200077010017
:101E0000F055000080320200F8B51446FEF746FC9B
:101E10000090012100074907000F4F100328206898
:101E200008D2884320602068B843206000980609E3
:101E3000B61E22E0084320602068384320600098E6
:101E4000861E1148864218DD206808432060082558
:101E5000691C0098FEF722FC03290BD22068E907D1
:101E6000B843C90808432060691C0098FEF716FCB7
:101E7000861E02E06D1C102DEADB2068B1B2000C5A
:101E8000000408432060F8BDFFFF0000F8B5F94CDE
:101E900000222578F8491346012D17D1F74D2D78EA
:101EA000012D13D1F64D2D78012D0FD1CD7A0E7B5A
:101EB000B5420BD1087C401CC0B20874142804D36E
:101EC000F0480B74036204F003FFF8BDEA490023F5
:101ED0000B74E8490B78EC490091012B01D10128E2
:101EE00016D0E54C0021E173A173E84DE84F6B5C1F
:101EF000002B00D00123A67B9B19A3737B5C491C9C
:101F00009A18C9B2D2B20A29F1D3002A1CD01EE015
:101F1000D948817B0029D8D0C17B002955D0DD4824
:101F2000CB07BF22002B03D0437913404371401DE0
:101F300049084AD0437913404371837A134083722E
:101F40000A30491EF6D140E0A17B002950D002287A
:101F50003BD04021D048FEF7C6FAA17BCF48C175DF
:101F600000998446CE790020002E2ED9CC4DC84948
:101F7000095C002943D0E27B40219300D318C64A74
:101F80009A185170C1490A5C002A55D0C54A0023ED
:101F90001354B84A127801220A54E27B4700910098
:101FA0005318BD4959184B7803434B70EB5B8B704A
:101FB0001B0ACB70BC4BDB5B0B711B0A4B71521CB9
:101FC000E273401CC0B28642D1D8AA4800780128EA
:101FD0003BD005F055F9B54CE07F400701D5FFF740
:101FE0003BFCE07F000700D46FE706F00BFDF8BD77
:101FF000A04800780028FAD105F032FAF8BDA949C6
:102000000A5C012A0ED00A390F5C002FD9D0E27B7E
:1020100000219300D318A04A9A1851709B497F1E43
:102020000F54BAE700220A54E27B40219300D318F0
:10203000994A9A185170B0E79A4A0123135462469C
:10204000D27D6346521CDA75A3E79848C07FC1076A
:1020500003D0894901228A7003E0874989780029E1
:1020600001D0800775D5844A914B9079002806D11C
:102070005878197800020843908201209071908A64
:1020800000280AD0401E0004000C908205D1009860
:102090000078002800D00120D070864D0F262E70C9
:1020A00000277B486F700478002C0BD07249D078E1
:1020B000C98A491C89B2012807D009D91079012899
:1020C0002AD005E05771977104E0507900281DD09F
:1020D000012169707248018876488170090AC170CF
:1020E000714909880171090A4171D878997800020B
:1020F00008436149C98A884201D85F49C88200996A
:102100005F2589792D0300290AD07BE00220D07059
:1021100001201071D18201E0D18201206870D9E7DD
:102120005549CA78002A6DD0C98A88426AD9002CDC
:1021300071D16048534E4770062201460120326239
:1021400002F020FB306A002815D0322001F078FD23
:102150000DE097E1322001F073FDAC4207D3AC42B1
:1021600006D1641C02F002F901F046FC00E0641C98
:10217000306A0028EED14F480F21017002214170D2
:102180000622014600240120326202F0FBFA306A86
:10219000002814D0322001F053FD0CE0322001F071
:1021A0004FFDAC4207D3AC4206D1641C02F0DEF80E
:1021B00001F022FC00E0641C306A0028EED13D48AA
:1021C0000F2101704770062201460024012032626F
:1021D00002F0D8FA306A002814D0322001F030FD25
:1021E0000CE0322001F02CFDAC4207D3AC4206D10A
:1021F000641C02F0BBF801F0FFFB00E0641C306AD5
:102200000028EED122480078002804D11A48C7706F
:1022100087820771C78228480078012806D0009875
:10222000807901280ED0022877D0A0E01A48032137
:10223000017040201349024608621749012002F04C
:10224000A1FA9BE00C48407C002867D11048007838
:10225000012863D117490B4E4870062200243262D0
:1022600002F090FA306A002839D0322001F0E8FC00
:1022700031E000003B000020D800002038000020A2
:102280003A00002050440020183500202842002049
:1022900030340020E4490020E8490020084A0020AA
:1022A000E645002032420020FA450020F8340020A4
:1022B00019350020FA00002085060020322001F0A8
:1022C000BFFCAC4207D3AC4206D1641C02F04EF80E
:1022D00001F092FB00E0641C306A0028EED16B48EC
:1022E000012141700622014600240120326202F0E1
:1022F00049FA306A002816D0322001F0A1FC0EE025
:10230000322001F09DFCAC4209D3AC4208D1641CE0
:1023100002F02CF801F070FB02E039E025E0641CCB
:10232000306A0028ECD15948062247700146002443
:102330000120326202F026FA306A00281ED03220D4
:1023400001F07EFC0CE0322001F07AFCAC4207D3B5
:10235000AC4206D1641C02F009F801F04DFB00E02C
:10236000641C306A0028EED108E0484847704848AD
:10237000062202624549012002F004FA00988079A1
:10238000002800D127E64348417C00296DD070E049
:102390004048407C0128E8D13F4800780028E4D13B
:1023A0003A4901203A4E487006220024326202F077
:1023B000E9F9306A002814D0322001F041FC0CE029
:1023C000322001F03DFCAC4207D3AC4206D1641C84
:1023D00001F0CCFF01F010FB00E0641C306A002823
:1023E000EED12A4801214170062201460024012035
:1023F000326202F0C7F9306A002814D0322001F0AE
:102400001FFC0CE0322001F01BFCAC4207D3AC42B5
:1024100006D1641C01F0AAFF01F0EEFA00E0641C92
:10242000306A0028EED11948062247700146002480
:102430000120326202F0A6F9306A00289ED03220D4
:1024400001F0FEFB0CE0322001F0FAFBAC4207D3B6
:10245000AC4206D1641C01F089FF01F0CDFA00E026
:10246000641C306A0028EED188E70B4909780129FD
:1024700005D009490978002984D14774ABE50121C9
:102480004174A8E504F084FCA5E50000FA000020F2
:1024900050440020D800002030340020F1B55E4EBA
:1024A0008EB0B0780E9948435C49096845185C497C
:1024B000096844180E98FEF7E9FE5A480027C07DC7
:1024C00001280CD0B17800297ED0FF22287823780B
:1024D0006D1CC01A8030FF2877DB227092E0B17843
:1024E000002000290BD9504909682A5C235CD21AC4
:1024F0004300CA52401CB278C0B28242F5D80E984E
:10250000009701970297039704970597069742490A
:102510000797089709970A970B978F7843490D9764
:102520007843096800254018BF1E0C90002F2FDD4E
:102530003D4804686E00A05F0028A05F00DC4042B8
:10254000502819DAA05F0028A05F04DB1421FEF7F1
:10255000B3F8001D03E01421FEF7AEF8C01CC0B2B2
:10256000820003A98B58A65F9B198B5069460A5CB1
:10257000521C0A546D1D08E0A15F0B984018694673
:102580000B90087A401C08726D1CEDB2AF42D1DC92
:1025900000206B46014604241A465D78165CB5425D
:1025A00001D9481CC0B29B1C1D78165CB54201D9EC
:1025B000881CC0B2891C641E2406240EEDD1115C57
:1025C000820003A8805801E020E016E0FEF774F8CE
:1025D00006B20D98104D002818D9134B61001868E9
:1025E000425A921B4252405A0C9980300855641C42
:1025F000A878E4B2A042F1D808E0002801DC2770F6
:1026000000E02070641C491E00D05FE70E98FEF7C2
:1026100079FD0FB0F0BD0000243500208C000020B3
:102620008800002070350020940000207C000020ED
:10263000102204490028086801D0104300E09043AC
:102640000860704700C0005005490028086802D0A3
:102650000122104301E0400840000860704700007C
:1026600000C00050202204490028086801D010430F
:1026700000E090430860704700C000500121090548
:102680000122411A1203914202D20020C043704736
:102690000E49CA6812091201921CCA60CA68102346
:1026A0009A43CA60CA6820231A43CA60486008690E
:1026B0000122104308610868400605D508684022D9
:1026C00010430860024870470020704700C0005067
:1026D0008188FFFF10B4114AD3681B091B01D36026
:1026E000D3681024A343D360D3682024A343D360CA
:1026F0005060002090601069012318431061106839
:10270000400606D5106840210843106010BC0448FC
:1027100070479068086010BC0020704700C00050EF
:102720008188FFFF30B4012212050124821A24039C
:10273000134BA24202D230BC18467047114AD468EB
:1027400024092401641CD460D4681025AC43D460EF
:10275000D46820252C43D460506091601069012119
:10276000084310611068400606D5106840210843F0
:10277000106030BC1846704730BC00207047000025
:102780008188FFFF00C00050084A062801D21129A5
:1027900001D310467047064A800180180268012361
:1027A0008B409A4302600020704700000189FFFFC0
:1027B000084000501F2901D90748704701221346DD
:1027C0008B4010318A408101044813430818C169C5
:1027D0009943C161002070470189FFFF004000500C
:1027E000F0B4214F012801D10E291FD00E4601243B
:1027F00010362546B5401D4E8C4081018919002AAE
:1028000004D0012A06D0022A07D00FE0CA692A4361
:10281000CA6107E0CA69224303E022462A43CD6920
:102820002A43CA61002B04D0012B05D03846F0BCE6
:1028300070478A69A24301E08A6922438A610C4990
:10284000002801D0012801D110220A60022805D0F9
:10285000032803D0042801D0052801D120200860D6
:10286000F0BC0020704700000189FFFF00400050CD
:1028700000E100E0062801D2112901D300207047B1
:10288000034A800180180068C840C007C00F704725
:102890001040005022286FD201007944097949186C
:1028A0008F44106A35506A93DDE8F9F8F7F65C63F7
:1028B0006B7279806A6A879FA7AF7FBBC6D1FA1A0D
:1028C000266A6AF4002005210907086348638863C3
:1028D000C863CD49486092E105200007016B0122E1
:1028E000120311430163016B52001143016386E13E
:1028F00005200007016B0122920311430163016B64
:10290000520011430163C04801699211F7E00520AC
:102910000007016BFF22013211430163016B52007A
:1029200011430163B8484169032212069143C2046E
:102930008918416141690322920691434205891831
:1029400041615CE105200007016B01229202114305
:102950000163016B52001143016350E10520000740
:10296000016B01221143016349E105200007016B5E
:1029700002221143016342E143E105200007016B9C
:102980000422114301633AE105200007016B08228C
:102990001143016333E105200007016B102211434D
:1029A00001632CE105200007016B20221143016324
:1029B00025E105200007416B012292031143416389
:1029C000416B52001143416319E105200007416B3F
:1029D0000122120311434163416B520011434163D1
:1029E0000DE105200007416BFF22013211434163D5
:1029F00005E105200007416B0122520211434163AA
:102A0000FDE005200007416B012292021143416362
:102A10007D48016949084900F0E005200007416B45
:102A2000012211434163416B022211434163E6E0FD
:102A300005200007416B102211434163416B2022A6
:102A400011434163DBE005200007C16B01229203C3
:102A50001143C163C16B52001143C163CFE0052034
:102A60000007816B802211438163816B40221143F7
:102A70008163C4E005200007816B0122D20311436A
:102A80008163816B521011438163B8E08CE003E0F5
:102A90006EE052E035E00AE005200007C16B8022BD
:102AA0001143C163C16B40221143C163A7E00520FC
:102AB0000007816B012211438163816B0222114364
:102AC0008163816B042211438163816B082211436E
:102AD0008163816B102211438163826B20210A4341
:102AE0008263494802698A43026101694022914335
:102AF00001610169802291430161016952009143A2
:102B00007CE005200007816BFF22013211438163C5
:102B1000816B520011438163816B520011438163C9
:102B2000816B520011438163816B520011438163B9
:102B3000816B52001143816361E005200007C16B86
:102B400001221143C163C16B02221143C163C16BF6
:102B500004221143C163C16B08221143C163C16BDD
:102B600010221143C163C16B20221143C16346E0AF
:102B700005200007C16BFF2201321143C163C16B05
:102B800052001143C163C16B52001143C163C16B59
:102B900052001143C163C16B52001143C163C16B49
:102BA00052001143C1632AE005200007816B012216
:102BB00011438163816B022211438163816B042283
:102BC00011438163816B082211438163016B1203FE
:102BD000114301630C48016920221143016101691D
:102BE00040221143016101698022114301610169A1
:102BF000520011430161016952001143016100203B
:102C00007047024870470000400000500189FFFFF4
:102C100030B41A4C06280FD211290DD203234900D3
:102C2000174D8B4080014019012A08D0002A09D095
:102C3000022A10D0032A17D0204630BC7047016802
:102C4000994316E002689A430260026801238B40B0
:102C50001A4302600EE002689A430260026802238F
:102C60008B401A43026005E00168994301600168E6
:102C70001943016030BC0020704700000189FFFF4C
:102C800000400050194B06280FD211290DD2012205
:102C90008A4000280BD001280ED0022811D003282A
:102CA00014D0042817D005281AD0184670471048A9
:102CB00081681143816017E00E488168114381608B
:102CC00012E00D488168114381600DE00B48816876
:102CD0001143816008E00A4881681143816003E084
:102CE0000848816811438160002070470189FFFF17
:102CF000004000504040005080400050C040005014
:102D0000004100504041005030B40024029D002991
:102D100000D02024002A01D010210C43002B01D028
:102D200008210C43002D01D004210C433C21002834
:102D300006D0074802688A432243026030BC7047CD
:102D4000044802688A432243026030BC7047000096
:102D5000000012400000024080220949002805D0EE
:102D60000848036813430360100305E0064803683E
:102D700013430360012080040860002070470000B6
:102D800000E100E00000124000000240114B00286A
:102D900002D001280AD01BE00F48002911D00129D8
:102DA00011D0022911D0032909D110E00B480029C4
:102DB00007D0012907D0022907D0032907D01846D8
:102DC0007047026004E0426002E0826000E0C2609E
:102DD00000207047018BFFFF3807002048070020C4
:102DE00070B50446084691000A225043FDF756FC90
:102DF000401D0A21FDF752FC0521401E124A090719
:102E00004025002C94680ED0EB001C439460CA68E7
:102E10001A43CA60CA689A43CA600C490A682A43BE
:102E20000A6008610EE0FF2301331C439460CA6806
:102E30001A43CA60CA689A43CA6005490A682A43A5
:102E40000A600861002070BD0002005000001240BE
:102E500000000240002803D003488068C0B27047D9
:102E600002488068C0B27047000012400000024073
:102E700070B406465006040EDB07FE25DB0F204823
:102E8000002E09D01F4A00291BD0012923D0022976
:102E90002BD0032913D108E01B4A002911D00129A6
:102EA00019D0022921D0032909D1106AA84320434F
:102EB0001062106A4008400018431062002070BC85
:102EC00070475068A8432043506050684008400055
:102ED00018435060F2E79069A843204390619069DD
:102EE0004008400018439061E8E7D069A8432043B8
:102EF000D061D069400840001843D061DEE700008F
:102F0000018BFFFF0000124000000240002801D0AA
:102F1000024800E002488160704700000000124053
:102F200000000240092801D9054870470549000200
:102F300040180168044A11430160002070470000F6
:102F40008190FFFF008000500100800010B409480C
:102F5000002101600848592202601622026088227E
:102F60000260064A53680224A3435360016010BC08
:102F700070470000008F0050000100500002005018
:102F8000074B0202D218092801D906487047106879
:102F90000843106001200449800608600020704743
:102FA000208000508190FFFF00E100E00748592198
:102FB0000160162101608821016005494A680223E9
:102FC0001A434A6000210160704700000001005070
:102FD00000020050092801D9074870470C235843C4
:102FE000064B4908C0188900425001200449800658
:102FF00008600020704700008190FFFFA8060020B5
:1030000000E100E07D22D200082801D91D48704768
:10301000F0B41D4B1D680646012408362746B7400C
:103020003D431D601346521E002BFBD10202174880
:103030001018036823430360154B0C68D3181C60F9
:10304000144B8C68D3181C6003680C79240123434B
:10305000036003680C7BA4012343036003680C7CBA
:10306000E4042343036003684C7CA400234303600F
:1030700009481018026849690A430260F0BC002040
:10308000704700008290FFFF008F005000800050CA
:1030900004800050088000500C800050F0B582B0D1
:1030A000092872D80407240F2501AE4625032604FB
:1030B0000095B4462502060701950007444B2505F7
:1030C0000009082961D20F007F443F79FF19BF44EE
:1030D000031021303E4B5D6C5868002A05D0F0216A
:1030E00088437146084358606CE0000900012043A2
:1030F0001DE05868002A06D00F2109038843009973
:10310000084358605EE00F21090288430199084393
:10311000586057E05868002A04D00F2109058843F9
:10312000284304E00F21090488436146084358609E
:1031300048E0002A04D05868000100093043F6E74F
:1031400059680F2212069143014359603AE098688A
:10315000002A05D0F021884371460843986031E089
:103160000009000120431EE09868002A06D00F21C4
:103170000903884300990843986023E00F2109025E
:1031800088430199084398601CE01EE09868002A73
:1031900004D00F2109058843284304E00F210904C6
:1031A00088436146084398600CE0002A04D0986880
:1031B000000100093043F6E799680F221206914397
:1031C00001439960002002B0F0BD024802B0F0BD9A
:1031D000008F00508190FFFF024A000280180160BA
:1031E000704700000C80005070B403282FD20C21CF
:1031F0002B4B002241435A54C9184A6001238A606C
:103200001B04284982008A581168C90707D0591E33
:103210001468E40703D00C46491E002CF8DC012496
:103220000521A403204E0907204D002811D062007B
:1032300001281CD0022828D090003060C8681043B4
:10324000C860C8689043C860A8689043A86070BC14
:1032500070473460CA68012000030243CA60CA682C
:103260008243CA60A9688143A96070BC704732601C
:10327000CA68012040030243CA60CA688243CA6028
:10328000A9688143A96070BC70473360C868204357
:10329000C860C868A043C860A868A043D6E700001B
:1032A000580700202800002080E100E000020050C4
:1032B000032811D270B504460D4608F065FC074896
:1032C000A100425890680321A943084091688908E9
:1032D00089000143916070BD704700002800002004
:1032E00003280ED2820010B4064881588B68082447
:1032F000A3438B608058816889088900816010BC75
:103300007047704728000020F0B58C4603287DD216
:103310000527C4493F070425002804D0012830D0E0
:1033200002284CD079E08C680126360334438C6047
:10333000F9683C463143F960F968B143F960B96B0B
:1033400001263143B963B84E376920218F43376175
:10335000A76B02210F43A763376940218F43376171
:10336000A16B2943A163376980218F433761A76B24
:1033700008210F43A7633169FF240134A143316160
:103380004BE08E680124640326438E60FE68394654
:103390002643FE60FE68A643FE60BC6BFF26013636
:1033A0003443BC63BC6B76003443BC63BC6B7600B7
:1033B00034438C638C6B760034438C632DE08C68D3
:1033C0000126B60334438C60F9683C463143F9600A
:1033D000F968B143F960F96B49084900F963924E05
:1033E0007769B1020F437761E76B02218F43E7638F
:1033F000776909040F437761E76BAF43E763776948
:1034000049000F437761E76B082100E00CE08F4330
:10341000E76371697403214371610C2106464E43D1
:103420008249895D002901D08148F0BD840081482E
:1034300000590168C9070AD07F4F05E039467F1E51
:10344000002901DC7D48F0BD0168C907F6D1774944
:1034500001278F55002771184F608F606146022940
:1034600005D0002B01DD202B37DD7548F0BD7149FB
:10347000026BFF2301331A4302630859026B0123D5
:103480001A430263085982689208920082600859C0
:103490008268AA4382600859836808229343836044
:1034A0000859826810239A4382600A5917620A59A0
:1034B0005762085902682A43026008590268DB0112
:1034C0001A43026008590268DB011A430260085976
:1034D00001685A101143016039E0202B00D100230C
:1034E000544F0168F826DB06B1431B0E19430160F7
:1034F0003859016B4908490001636046012805D12C
:103500003859016801239B041943016038598168C7
:10351000082319438160002A1BD0012A29D0022ADE
:1035200036D0032A44D0042A52D0052A5FD0385915
:10353000062A0168434A6AD011430160385901687C
:1035400029430160385901680222114301600020BB
:10355000F0BD385902680121C9028A430260385916
:103560000168A94301603859026802218A43026058
:10357000EDE7385902680121C9028A4302603859CF
:103580000168294301603859016802229143DDE74F
:10359000385901680122D20291430160385901680B
:1035A000A943016038590168022211430160CEE746
:1035B000385901680122D2029143016038590168EB
:1035C0002943016038590168022211430160BEE7B6
:1035D000385901680122D20211430160385901684B
:1035E000A94301603859016802229143AEE7385976
:1035F00001680122D2021143016038590168294350
:1036000001603859026802218A4302609FE7114332
:10361000016038590168A9430160385901680222E4
:10362000114393E70002005040000050580700206B
:103630000394FFFF28000020FFFF00000494FFFF19
:103640000294FFFF0008000003285BD270B401243D
:103650002D4BA405820000294ED099580D682543B2
:103660000D6099580A6803231B029A430A600521DA
:10367000264A090710252026002813D09303D403D7
:10368000012820D002280BD1506918435061C86B23
:10369000A843C863506920435061C86BB043C863F6
:1036A00070BC7047106901235B0798431061886BF9
:1036B0002843886310695B0098431061886B30432E
:1036C000886370BC7047106998431061886B012350
:1036D0001B03184388631069A0431061886B5B006B
:1036E00018438863486B1B11984348631069022193
:1036F0008843106170BC704798580168A14301600D
:1037000070BC704770470000280000204000005047
:10371000032809D2820005488058826889079208E8
:103720009200890F0A438260704700002800002041
:10373000032801D301207047F7B582B0064617462B
:1037400000F06CF87D21C90048431B4D1B4CB600AE
:103750000090002F12D03946FCF7A0FF401C400813
:10376000401EA04201D9204602E0002800D10120DD
:10377000A9594A68000492B202434A60039800289B
:1037800017D001460098FCF789FF401C4108491EEC
:10379000A14201D9214602E0002900D10121A85906
:1037A00042688BB2120C12041A4342600098FCF774
:1037B00075FF05B0F0BD000028000020FFFF0000ED
:1037C000032809D2064A012380009B0210580029D1
:1037D000016802D09943016070471943FBE700007C
:1037E00028000020032809D28200054882589068EA
:1037F0000423C9079843490F0843906070470000AD
:10380000280000200520000780694006C00F70478F
:10381000014800687047000010000020F0B5244CFB
:1038200085B0206941072348026818D02069400705
:10383000400F012815D020691F4F4007400F022874
:1038400011D020694007400F03282ED03846A169C7
:103850000907090F491CFCF721FF05B0F0BD104610
:10386000F5E72020F3E7154E00206ACE0396029577
:1038700001930091216A090300D53A46216AC903E0
:10388000E5D4206A8004C10E206A891CC005C00DE1
:10389000801C5043FCF702FF216A6A460904890F25
:1038A00089005158FCF7FAFED1E70A20CFE7000063
:1038B0000002005010000020F055000024EA000033
:1038C00010B5144C84B01ECC0394134C0293019297
:1038D0000091216A0020090301D5104A01E0104936
:1038E0000A68216AC90312D4206A8004C10E206AC2
:1038F000891CC005C00D801C5043FCF7CFFE216A17
:103900006A460904890F89005158FCF7C7FE04B0C4
:1039100010BD000024EA000000020050F055000035
:1039200010000020F8B50C462F497D270860064698
:10393000FF00A0003946FCF7B1FE05463946304687
:10394000FCF7ACFE294A116A090302D48008A908D1
:1039500001E040086908264B4002C018891E084350
:1039600003218903136808435B071568DB0F0427ED
:103970003D431560156AC6056D0A6D02F60D3543A7
:103980001562156A1F267602B5438604F60E760286
:1039900035431562156A0004800F8D43800305438B
:1039A0001562106A390488431062106A89108843CE
:1039B0001062D0684007FCD50E48844205D9906952
:1039C0000121000900010843906110690221C0082B
:1039D000C000084310611068D907B843490F084375
:1039E00010600020F8BD0000100000200002005010
:1039F00000FCFFFF0077010010B5094800F020F936
:103A000008485921016016210160882101600521C3
:103A100009078A6801231A438A600021016010BDEA
:103A2000043D0000000100501C4A002809D0012874
:103A300010D0022817D003281ED0042824D01848FC
:103A400070479069FF231B0409069843090A08433D
:103A5000906120E090690F231B0309079843090C2C
:103A60000843906117E090690F231B0209079843F0
:103A7000090D084390610EE09069F023090798430F
:103A8000090E0843906106E09069090700090001EA
:103A9000090F0843906100207047000000020050A9
:103AA0000596FFFF072802D8011F032901D2064807
:103AB000704706490A694007D208D200400F024306
:103AC0000A610020704700000396FFFF00020050CB
:103AD0000E2873D202007A44127992189744182162
:103AE000060F2A323C46505A646F7982434AD069A5
:103AF0000C2389079843090F0843D0617AE03F48B7
:103B0000C269890792089200890F0A43C26171E075
:103B10003A4AD069C02389079843090E0843D06107
:103B200068E0364AD069302389079843890E0843F4
:103B3000D0615FE0314842699200920889070A43E8
:103B4000426157E02D4A506903231B0789079843B8
:103B50008908084350614DE0284A506903239B06B9
:103B60008907984309090843506143E0234A506993
:103B700003231B068907984389090843506139E0EC
:103B80001E4A506907231B0549079843490A084301
:103B900050612FE0194A506907231B0449079843D5
:103BA000490B0843506125E0144A506907231B0361
:103BB00049079843490C084350611BE01CE00F4A39
:103BC000506907231B0249079843490D0843506178
:103BD00010E00A4A50690C2389079843090F0843EB
:103BE000506107E005484269890792089200890FF1
:103BF0000A434261002070470148704700020050AC
:103C00000496FFFF07490A6A4B029A43C3075B0BFE
:103C10001A430A620A6ACB01C0079A43C00B0243E7
:103C20000A6270470002005004490A6A8B02C0070A
:103C30009A43000B02430A627047000000020050E2
:103C4000401E03D300BF00BF401EFBD270470000E0
:103C50000949002807D0012807D0022807D00328E7
:103C600007D0002070470869704748697047886925
:103C70007047C869704700004800002030B4002831
:103C800008D0012808D0022808D0032808D030BC6A
:103C90001B4870471B4804E01B4802E01B4800E03B
:103CA0001B4801239B075C10072925D20D007D448A
:103CB0002D796D19AF440306090C10161F00016819
:103CC000194307E00168994304E00168214301E0DA
:103CD0000168A14301600BE00168012292061143D3
:103CE000016005E00168D2B2090A090211430160CE
:103CF00030BC00207047426030BC0648704700006E
:103D00000297FFFF00000140200001400000114029
:103D1000200011400197FFFFF8B50C46D60603219D
:103D200049070E436E4B6F4D6F4F00220121002853
:103D300006D0012835D0022864D003287ED196E031
:103D4000386800287BD166483960806804231843AE
:103D5000634B98606548026083680B4383603A61F7
:103D6000002002F0C3F90090022867D3002C65D030
:103D70000127214679430098FCF790FC012802D8DE
:103D80007F1CFF2FF5D97F1E39060143481C55D0F3
:103D90000802564A000A5060080E30431060901521
:103DA00098E07868002865D14F4841609F680820F6
:103DB00007439F604D480262836A0B4383624A480F
:103DC0004261012002F092F90090022836D3002CC3
:103DD00034D00127214679430098FCF75FFC012885
:103DE00002D87F1CFF2FF5D97F1E39060143481CDE
:103DF00073D008023D4A000A5062080E3043106238
:103E0000501567E0B868002834D137488160986859
:103E10001027384398603648026083680B438360FC
:103E200031488261022002F061F90090022854D3E7
:103E3000002C52D001272146794301E04DE019E0E2
:103E40000098FCF72BFC012802D87F1CFF2FF2D929
:103E50007F1E39060143481C3FD00A022448120A3B
:103E60004260090E314301600120800232E0F868AF
:103E7000002801D01F48F8BD1B48C1609868202762
:103E8000384398601A480262836A0B43836216487B
:103E9000C261032002F02AF9009002281DD3002CF1
:103EA0001BD00127214679430098FCF7F7FB012836
:103EB00002D87F1CFF2FF5D97F1E39060143481C0D
:103EC0000BD00A020A48120A4262090E314301620B
:103ED0000120C00228600020F8BD0748F8BD00009E
:103EE0000002005000E100E0480000200000014016
:103EF000000011400497FFFF0197FFFF00210A4ACD
:103F0000002807D0012807D0022807D0032807D0AF
:103F100006487047116104E0516102E0916100E0E0
:103F2000D161002070470000480000200297FFFF89
:103F3000F8B501273F050C46002807D0B84205D048
:103F400005218904884201D0C348F8BDA179002920
:103F500009D0032907D0012905D0052903D0072955
:103F600001D0BE48F8BD2179002907D0012905D02C
:103F7000022903D0032901D0B948F8BD617900298D
:103F800003D0042901D0B748F8BDE17900290DD04C
:103F900001290BD0022909D0032907D0042905D013
:103FA000052903D0062901D0AF48F8BD05231B071A
:103FB000202510260422AD49002813D0CF02DB684B
:103FC000B84230D1C7103B4305273F07FB60FB6871
:103FD000C710BB4305273F07FB608B68C7103B43F7
:103FE0008B6032E0DF68012000040743DF60DF6898
:103FF0008743DF608B6803438B609D48836813436E
:104000008360836802273B4383608368F027BB4358
:10401000E7793F073F0E3B438360A3795B07C368A3
:104020003ED52B433DE00127BF043B4305273F0717
:10403000FB60FB680127BF04BB4305273F07FB600C
:104040008B680127BF043B438B6001231B0598420B
:1040500009D1884B9B68874F1343BB60BB6802271D
:104060003B43844F08E0844B9B68834F1343BB6002
:10407000BB6802273B43804FBB6001231B0598426E
:104080007ED17C488368F027BB43E7793F073F0E2A
:104090003B438360A3795B07C36845D52B4344E06A
:1040A000AB43C360A3799B07C36801D5334300E0EA
:1040B000B343C360C3680825AB43A579ED072D0F53
:1040C0002B43C360C36825799B089B00AD07AD0FE8
:1040D0002B43C360C36893436279D207520F1343E3
:1040E000C360227A026248698001800F0AD0486961
:1040F0008001800F01280BD06048614A2168FDF7DC
:1041000083FE95E0FFF784FB7D21C9004843F4E777
:1041100088690005050FFFF7D3FB7D21C9004843DF
:10412000691CFCF7BBFAE8E7AB43C360A3799B07C4
:10413000C36801D5334300E0B343C360C3680825B7
:10414000AB43A579ED072D0F2B43C360C3682579D9
:104150009B089B00AD07AD0F2B43C360C36893431F
:104160006279D207520F1343C360227A0262486910
:104170008001800F0AD048698001800F012800E08B
:1041800016E009D03D483F4A21684FE0FFF740FB69
:104190007D21C9004843F6E788690005050FFFF750
:1041A0008FFB7D21C9004843691CFCF777FAEAE7D9
:1041B00031488368F027BB43E7793F073F0E3B4315
:1041C0008360A3795B07C36801D52B4300E0AB4351
:1041D000C360A3799B07C36801D5334300E0B343B1
:1041E000C360C3680825AB43A579ED072D0F2B43AA
:1041F000C360C36825799B089B00AD07AD0F2B43B7
:10420000C360C36893436279D207520F1343C360FC
:10421000227A026248698001800F0BD048698001D0
:10422000800F01280CD01548174A2168FDF7ECFDD6
:104230000020F8BDFFF7ECFA7D21C9004843F3E701
:1042400088690005050FFFF73BFB7D21C900484346
:10425000691CFCF723FAE7E70298FFFF0398FFFFCA
:104260000498FFFF0598FFFF0698FFFF000200502B
:1042700000000540000015400040154080B14F018E
:10428000240005402400154024401540F8B51E4880
:1042900000901E49002008701D49887008701D4953
:1042A000087002F0FDFD1C4B9868C009C0019860C1
:1042B00018680121C903884318601348174D806F9F
:1042C00040199861164900204A68002A16D0154FF7
:1042D00001260201D218D66284003C59A405A40D1F
:1042E00094620C2444436418A46864191462401C4A
:1042F0000C22424352185268002AEAD10098002149
:10430000803001754175F8BD88070020E00300206A
:1043100038000020D80000200000064000FFF9BF50
:10432000F8030020300800200649DF22C86FC0B221
:104330001040C867044900200870044A1070887053
:10434000704700008807002038000020D8000020B7
:1043500004492022C86FC0B21043C8670249012037
:1043600008707047880700203800002001210648A7
:10437000C90501603B200549400108610448816886
:10438000820491438160704780E100E000000640B4
:104390000002005030B50021084600F0B1FA084C88
:1043A00000010019C16A03252943C1628021002050
:1043B00000F0A6FA00010019C16A2943C16230BDAC
:1043C00000000640F0B40F4800228468002C17D982
:1043D000436860251421514359188E68002E0CD073
:1043E000067B0F782E40B74207D14E78477BBE42FE
:1043F00003D108698968F0BC0847521C9442E9D887
:10440000F0BC7047080800200348007B000602D576
:104410000249002048637047080800200000064059
:104420000948017D094800290AD00F22C2670848BF
:1044300082684906D209D201490E0A438260704758
:104440000721C16770470000080800208807002086
:1044500000000640F0B40F4800228468002C17D9F1
:1044600043686025142151435918CE68002E0CD0A2
:10447000067B0F782E40B74207D14E78477BBE426D
:1044800003D10869C968F0BC0847521C9442E9D8B6
:10449000F0BC70470808002000B50548007B000606
:1044A00004D400221146104600F06CF900BD000053
:1044B00008080020F8B50021214C084600F020FA39
:1044C000204D00014019C16A01263143C16280219B
:1044D000002000F015FA00014019C16A3143C162A1
:1044E0002146C86FC0B2072826D3896F0022082052
:1044F000A3180D788033491C521C1D73401EF7D140
:104500008034A368002B17D96268602514214143C9
:1045100051184E68002E0CD0267B0F782E40B742E3
:1045200007D14E78677BBE4203D108694968884746
:10453000F8BD401C8342E9D8FFF72CFFF8BD00000E
:104540008807002000000640F0B52349234B087B74
:1045500002248A7B002804D0012832D002280AD005
:104560002DE0012A2BD1487B012801D09C7028E046
:104570000020987025E0002A21D10A7C184D0020E7
:104580000C2646437619B76A974203D0766B96425B
:1045900012D1401C062812D2020112481018826A59
:1045A0008025AA438262497B0129C16A0FD0214339
:1045B000C1620120587004E0801C0628E0D3FFF798
:1045C000E9FE00221146104600F0DCF8F0BDA143E0
:1045D000C1620020EEE7000008080020380000203B
:1045E000880700200000064000B501220249002093
:1045F00000F0C8F800BD00001D08002008B500202C
:1046000069460870012200F0BDF808BD38B51A4CA3
:104610001A4A217C00200C2343439B189D6A8D423B
:1046200008D05B6B8B4201D1401C03E0801C062844
:10463000F1D31348217B134B0022802904D0812918
:1046400006D0822907D013E098786946087007E001
:104650006846027004E006280AD258786946087055
:104660006846427002226946002000F08BF838BD8F
:10467000FFF790FE38BD00000808002088070020E2
:104680000299FFFF3800002010B50A480446E16F88
:10469000C9B2072902D0FFF77DFE10BD8030817BB3
:1046A000017500221146104600F06CF80F20E067FB
:1046B00010BD00008807002070B5224C0646224934
:1046C0000120656AC8700020087020490870A96838
:1046D000002902D0A07B884700E00120A27B1C4972
:1046E000002A23D000282AD01F20C8676968002923
:1046F00001D030468847A07B0022607511461046E5
:1047000000F040F81348007800280ED1012112482B
:10471000C90501603B2011494001086110488168CA
:10472000820491438160FFF767F970BD0F20C8676D
:10473000627500221146104600F024F870BDFFF7A4
:1047400029FE70BD0808002038000020DA00002093
:1047500088070020E003002080E100E00000064020
:104760000002005010B50649496A4968002900D086
:10477000884700221146104600F004F810BD0000E2
:1047800008080020F7B50D4616462C4F80210098EA
:1047900000F0B6F80C214143C9198C46C96AB142F0
:1047A00002D2274803B0F0BD002D16D0002E14D041
:1047B0006146096B11DD6C1E491EF20703D0641CB3
:1047C0002278491C0A70721007D063784B70A41CC1
:1047D000891C23780B70521EF7D16146096B194A68
:1047E00003018A18184959180A62009A35430023B0
:1047F0009200002D0AD0D0190469002C0AD00024A0
:10480000046112480479012C06D008E08000C01928
:104810000361F6E70124F3E7D41923610371D0198A
:1048200000690028886A02D0094A104001E080220D
:10483000104388624E62002003B0F0BD880700205C
:104840000399FFFF00FFF9BF000006403800002079
:104850007F03000030B50C460A4D002100F050F8EF
:104860000C2141434919CA6AA24201D2064830BD0F
:10487000096B064A89180201054810180162446252
:10488000002030BD880700200399FFFF00FFF9BF1B
:1048900000000640F8B5174E002537880124204651
:1048A000A840014639420AD03188EA0081431248C3
:1048B00031808158002902D01018406888476D1C4B
:1048C000062DECDB0B4E0D4F002570880146E940AC
:1048D000C9070AD02146A94088437080E8003958AA
:1048E000002902D0C019406888476D1C0C2DECDBF4
:1048F000F8BD0000080800203404002064040020F3
:10490000024610B40A4B00200A430C214143C91847
:104910008C6A944203D0496B914202D1401C10BC76
:104920007047801C0628F0D310BC02487047000076
:10493000880700200299FFFF10B50C460021FFF701
:10494000DFFF054A01018918097921600C214843DC
:1049500002494018806810BD20000640F80300207E
:104960000149486201487047080800208807002074
:1049700070B4002A1BD000290ED0803082604160C4
:104980000020002A13D90B4C0B4D142343435B1812
:104990009E68002E03D003E070BC084870479C60FE
:1049A000DE68002E00D1DD60401C9042EDD370BC6B
:1049B0000020704709440000994400000199FFFF5E
:1049C000F8B55F498A688C0422438A6005231B0777
:1049D000D9682143D960FF21F5310A46491E002AD2
:1049E000FBD1D968A143D9607D21564A09011161E3
:1049F000554A1169012319431161FF21491EFDD553
:104A00001169490849001161002801D04F498860A7
:104A10004F4800210090018000984F4F4180396736
:104A200008214C487967B8674C484D4A864651681A
:104A30000020002942D0002110E0002100280DD9DB
:104A4000D3581B071B0F0C244C43E419A46A2407FA
:104A5000240FA34202D0491C8142F4D30C234343C8
:104A6000D558DC19A5629D186E68E662B446AE683A
:104A7000002E0CD1814206D20E460C214E43F11974
:104A8000096B216302E07146E6442163A960D358B3
:104A9000190601D5402100E02021FF31FF311B071D
:104AA00002311B0F194384002E4B401C19510C215D
:104AB00003464B43991849680029BED123487146E3
:104AC000C16000201F49F8674869234BC007C00F29
:104AD000B860C00709D001227D200001DA670861B3
:104AE000009801881143018007E03B2040010861E4
:104AF00000980222018811430180009E002437881B
:104B000001252846A040014639420AD03188E200FA
:104B10008143154831808158002902D0101840681F
:104B20008847641C062CECDB104801680902090A5E
:104B3000016001210E48C90501600020F8BD000098
:104B400000020050000006408000064038000020AF
:104B500008080020000106408807002008010640E0
:104B6000F8030020300800203404002014E400E0A2
:104B700000E100E0F1B582B00298C16840680090A1
:104B80000298C06F002874D03B48029C014001226B
:104B90003A488034002907DA2188202319432180EC
:104BA0008103416002990A614668FF21090431408E
:104BB0004160102501200146A940314256D029010B
:104BC0002B46FF392D4A103B01398918896A5A0052
:104BD00009079F18090F009A3F1DFA4070273A40B5
:104BE00006D0202A0AD0602A14D0702A1ED03DE0B8
:104BF0006288490088400243628037E04B00628847
:104C00005B1C07469F403A4362808A000299511814
:104C100008612BE04B0062885B1C98400243628075
:104C20008A0002990020511808611FE013481A01F8
:104C30001018806A6022029B10408F000022FB182F
:104C40001A61202802D0402808D00FE00C48090142
:104C500008188168002909D0C06806E008480A01E0
:104C60008158002902D01018406888476D1C162D05
:104C7000A0DB03B0F0BD000000003F800000064054
:104C800064040020F8B531494C68314B2007DC60E2
:104C900002D508204860F8BD2D4A7D2510466707DB
:104CA0002D0180300126D26F002F18DA4C69344074
:104CB0009C6004234B60264BE40706D0002A01D1F8
:104CC000DE670D610188314307E00022DA673B228D
:104CD00052010A610188022211430180F8BDE707F1
:104CE0002BD00C691C604E60194B002AF6D0E607E9
:104CF00007D00D610721D967018804221143018083
:104D0000F8BDA7072026002F0BDA1F24A4010C6191
:104D1000012A01DB3243DA6701880822114301804E
:104D2000F8BD6407FCD50D61012A01DBB243DA67E7
:104D30000188102211430180F8BDA007FCD5C86886
:104D400058600348FFF716FFF8BD0000000006405A
:104D500088070020F1B580210098FFF7D1FD0E4DA6
:104D60000E4E0F4C0127A84207D081007158000158
:104D70008905890D00198162C76200210098FFF73B
:104D8000BFFDA84207D08100715800018905890D37
:104D900000198162C762F8BD0299FFFF3008002048
:104DA0000000064000B50B48592101601621016042
:104DB0008821016000220121104600F021F8002224
:104DC0000321104600F01CF8034881684908490097
:104DD000816000BD000100500002005005490A68D2
:104DE00040231A430A600449086204480221016012
:104DF00070470000004000404800002000E100E053
:104E00000A293ED208007844007900188744040A31
:104E10000E14181C212631351B48016880221143CD
:104E2000016024E018480168802215E016480168F6
:104E300040220CE001601AE01348016840220BE0B8
:104E400011480168012202E00F4801680222114363
:104E5000F0E70D48016802229143EBE70A49086830
:104E600007231B0252079843520D1043086000208D
:104E70007047054801681022E9E7034801681022DD
:104E8000EAE7024870470000004000400197FFFF3A
:104E90000948826801231A43826008480268072390
:104EA0001B0249079A43490D0A43026001688022A8
:104EB0001143016000207047000200500040004094
:104EC000012004498003086203488068002800D05C
:104ED0000047704740400050000000200120044976
:104EE000C00308620348C068002800D0004770472C
:104EF0004040005000000020F8B5204E204D002812
:104F000004D00120A8740020A88302E0A87C002817
:104F100033D01C488478A88B21460090FBF7BEFB59
:104F2000009944430A1B1849002408704A70174925
:104F3000174F08714A71A87C009068782A78A97880
:104F4000801A0A225043FBF7B7FB401CA98B7A5CFE
:104F5000491C89B23255A983884202DC00200090A6
:104F600004E0641CE4B21E2CF0D30098A874202244
:104F700008490548FBF706FB0120F8BD2E4A002032
:104F80007006002024350020B84A0020284A00205E
:104F9000E04800202C4A0020F0B50126314C87B0B3
:104FA000002804D00120E0740020E08302E0E07CCF
:104FB000002854D0A07B0B280BD00C2809D07F28C8
:104FC00004D0032805D0102803D005E0217C012956
:104FD00002D1022610282AD0234805682348817868
:104FE0000391E08B714304900090FBF757FB074659
:104FF00031460098FBF752FB03997943411A1C484C
:10500000077141711B48077041700099421B511A8A
:10501000891C002901DD1E290BDB04991E22691859
:10502000801CFBF713FB04981E30E0830CE0124851
:10503000D3E70022E18B87186B5C491C521CBB70C4
:10504000D2B2E1831E2AF5D308490398C9784843B0
:10505000E18B7043884201D80020E074012007B042
:10506000F0BD0000700600207C00002024350020E8
:10507000284A0020B84A00209C000020F0B595B0D6
:10508000FD481190007AFD4DFD4EFE4F002817D0CF
:10509000FD4A107800280AD0FC490878401CC0B2AC
:1050A0000870119B5B7A834201D8002008700020B1
:1050B0000290F74812901198C07C012810D03BE074
:1050C0000024285D012805D16000325A395A204653
:1050D00000F072FC641CE4B20A2CF2D315B0F0BDEF
:1050E000EC4902980A5C032A24D1EB49095C0229A5
:1050F00020D1E6490978002902D0491EC9B203E04F
:105100001199497A491EC9B2002902D0491EC9B273
:1051100003E01199497A491EC9B2E04CC3001D1938
:105120004C002E5BDE4D41006E52DE4D5B191C5B68
:10513000DD4B5C52D8490A54D0480299405C0128A2
:10514000DA48415C02D0012971D01FE2002922D047
:105150000298CC49400005900C5A0299CB4ECD00E4
:10516000CE4932786B185100C54F5C52385ACD4F3A
:105170000490ED196852CE490298119F085C7F7A1D
:1051800009977F1EBC46604552DA029F401CC855F5
:10519000401CC1B24DE0029901224254C449029818
:1051A00000270F541198427A002A27D00298BD4B4D
:1051B000C100BA480818801EC918891ED20709D034
:1051C000029AB04B52009B5A801C0380AC4B891C46
:1051D0009A5A0A80119A527A53080FD0029AA84D0F
:1051E000A84C5200A65A4680AE5A4E80001DA65AC0
:1051F0000680091DAE5A0E805B1EF3D10298A149AC
:1052000040000D5AAB490D529D490C5AAA490C5207
:105210000298AA4980000F50A9490F50A9490F5080
:10522000A9490F50A9490F50A9490F50A2E1A7E180
:10523000099995480078139001280AD8A5480026B6
:105240008657A548407C864203DAA44800780028A7
:105250005AD0481C484340080390002004460029C7
:105260000ED056009F5BAE5B4F434E433818341947
:10527000002A6ED0521E491E0906D2B2090EF0D184
:105280000399FBF70BFA85B220460399FBF706FA60
:1052900084B2884805998B4B415A02980491860044
:1052A000864880590F900918089183490598095A32
:1052B0008348099180591490081807908249985999
:1052C0008F59C1198148825928308059121889187C
:1052D00099513B187C4F5B1C0A91BB510C937B4B43
:1052E000521C9A510D927A4A801C90510E900520C2
:1052F00040030A18480311461092FBF7DDF908999C
:105300008D424CDD691A4BE01198807B012817D043
:10531000481C484340080390002004460029AFD0B1
:1053200056009F5BAE5B4F434E4338183419002A3A
:1053300031D0521E491E0906D2B2090EF0D19FE7A4
:10534000102003905B4905980E5AA64202D9301BE3
:1053500001E022E0A01B584A0599555A04998D4254
:1053600001D96A1A00E04A1B09998018C900FBF7A5
:10537000A3F981B2102901D30F2102E0002900D145
:1053800001211020421A56435543049A4C433019C8
:105390004A43AC1874E76246CCE762466BE7491BA8
:1053A000079A944201DDA21A00E0121B89184018E6
:1053B00007B201204003874200DD07460D9810998F
:1053C0004003FBF779F901B2012206915203511A09
:1053D0000A0189180F98109148431421FBF76CF9C2
:1053E00008996A1A06994A438018C117C90C081807
:1053F00041133248815101204003C01B08990F908E
:105400004843394669434018C117C90C081840136E
:1054100008901099149848431421FBF74DF9079907
:10542000621A06994A438018C117C90C081841131B
:105430002348815107990F984843394661434018E2
:10544000C117C90C08180A9940130A467A43521327
:105450008A1A1C498A510C990B467B435B13CB1A61
:1054600019498B5106990D9F4A435113791A174ACE
:10547000174F9151069933E07035002030340020E9
:105480006C34002044340020A000002020060020BE
:1054900018350020584700203C4500209645002044
:1054A00036460020464500204A46002000450020A0
:1054B0005E4600201445002028450020304700208B
:1054C000084700206846002090460020B84600208B
:1054D000E04600200A420020503500205C060020F3
:1054E0004B430E9A5913521ABA51139901290ED8E7
:1054F0002E4A002151562E4A527C914207DA2D49FC
:105500000978012903D01199897B002913D10899C1
:10551000002901DA002505E00A4627490D89AA423B
:1055200000DC95B2002801DA002404E022494C890D
:10553000A04200DC84B204980999129E401B091B0A
:105540004043494376791D4A1D4B4718B74205DD54
:105550001C4F00263E801C4F01263E70164E76885A
:10556000B04203DAB14201DA049D099C0598155254
:1055700005981C5222462946029800F01DFA05E0C3
:10558000029A00218154029800F050F91198C07BD2
:10559000012802D1029800F019F80298401CC0B20C
:1055A00002900A2800D286E515B0F0BD0A4200201C
:1055B000503500205C060020200600201445002005
:1055C00028450020EC000020DD000020F0B5054655
:1055D0008DB000200890099089488B4C8B4E435D1C
:1055E000A088F18AE4880494368B864A34190A9498
:1055F0000918874E6C00002B02D1575D012F0AD08D
:10560000775D002F05D0012B32D0505D002800D1EE
:1056100070550DB0F0BD002272557E4A135B7E4A74
:10562000128E1018834201D201207055881A9842B8
:1056300003DA705D02210843705578480499005BD5
:105640005118884203D2715D0427394371550A9974
:10565000891A814203DA715D082211437155715D27
:105660000029D6D06E490B536E4908530DB0F0BDDA
:10567000FA0718D0674A6A4B125B1B5B9A4206D93D
:10568000934201D99A1A00E0D21A92B208927A078C
:105690003ED5624A634B125B1B5B9A4211D993421F
:1056A0000CD99A1A0BE0BA07F1D55A4A5C4B125B37
:1056B0001B5B9A42EBD29342E6D9E3E7D21A92B24D
:1056C0000992574A125B02920392564A089B165B54
:1056D000554A0796927C06929A4241D2FA0722D006
:1056E00000210391099A0699914239D34949095BEE
:1056F000814235D90298029A091A4848005B301A4B
:105700005043FAF7D9FF00B28019002826DC27E0C1
:105710003A07D6D5414A434B125B1B5B9A42D0D223
:105720009342CBD9BDE7B8071AD588B20390099A3E
:105730000698904214D33748005B884210D20299F1
:10574000039B411A3548029A005B9A1A801B50430A
:10575000FAF7B2FF00B28019002801DD80B207908D
:1057600009990698884239D2780718D50020079001
:1057700008990698884231D328480499005B8842EA
:105780002CD9244A811B125B0298801A7043FAF7C5
:1057900093FF039900B2401800281DDC1EE0380773
:1057A0001CD50A98089980B207900698884215D3AC
:1057B0001A480A99005B884210D2811B1548025B87
:1057C0000298101A079A921B5043FAF775FF039933
:1057D00000B24018002801DD80B2039008990698B5
:1057E000884203D301460998814204D22846079A89
:1057F000039900F0E1F80649002048550DB0F0BDCE
:10580000303400206848002020060020F8340020B2
:105810000A45002062470020503500208A470020BA
:105820000E460020224600207035002054490023F7
:105830008C46C97C002973D0F0B5534F534A514967
:10584000BD8E92884400095BAE1891B00796B142B4
:1058500000D201234E4EF68AB2180C92521B0692C9
:105860008A4201DA02221343484E4A4AF688125B02
:10587000B646AE190596B24201D204273B43444FC7
:1058800076463F8BBE19751B0D960495954201DA3D
:1058900008252B43002B6FD0C5003F4EAE46AD19F7
:1058A0003A4E367877003D4EED5B365BB54201D916
:1058B000AD1B00E0751BADB20E95394E7546AD19A6
:1058C000384EED5B365BB54201D9AD1B00E0751B70
:1058D000AEB26746BD7D0E9FBD4201D29F0704D187
:1058E000B54227D21B079B0F24D0079B994205D2B4
:1058F0002D4B1D5B8D420AD9002108E0069B8B428F
:1059000005DA294B1D5B8D4201D20C9989B2059BAA
:105910009A4206D2254B1D5B95420BD9002209E025
:105920002CE0049B934205DA204B1D5B954201D28B
:105930000D9A92B21C4B1B5B8B4201D95B1A00E0A3
:10594000CB1A1A4D9BB22C5B944201D9A41A00E0E9
:10595000141BA4B25B4364431C190B4B5B8D5B436C
:105960005B009C4208DD124B1B5C032B04D1114CE5
:105970000123235400F020F811B0F0BD704700005F
:10598000703500206247002050350020200600209E
:10599000F83400208A470020964500203646002033
:1059A000464500204A460020144500202845002096
:1059B0005847002030340020F8B5314D0027AE881C
:1059C000304B4400B14201D21F5301E0881B1853F1
:1059D000E8882D4D824201D22F5301E0101A28533E
:1059E0002A480127C18A068B185B00281FD08842ED
:1059F00000D91953285B00281BD0B04200D92E5380
:105A00002048005B8003FAF749FE1E4980B2085324
:105A10000090285B4B21C90148433146FAF73EFE0E
:105A200080B21A492853897F012904D00FE01F53FF
:105A3000E0E72F53E4E74B220099D2015143890B51
:105A40002953104E80031146FAF728FE30530D48B3
:105A5000015B00290FD001229203914201D3511E14
:105A60000153285B002808D04B21C901884201D38B
:105A7000481E2853F8BD0753F3E72F53F8BD000025
:105A800020060020E6450020FA450020F8340020DA
:105A900010B5024808F0E6FE10BD000000450020E9
:105AA000F0B56B4969480F6889B0002400686A49FD
:105AB00002940968694E0091B178664D4900FAF781
:105AC00012FDB078FF2241003846FAF7E7FC07F0F4
:105AD000D7FF07F0F1F805F02FFE012859D0002379
